{
  "contractName": "Work",
  "abi": [
    {
      "inputs": [],
      "payable": false,
      "stateMutability": "nonpayable",
      "type": "constructor",
      "signature": "constructor"
    },
    {
      "constant": false,
      "inputs": [
        {
          "name": "_owner",
          "type": "address"
        },
        {
          "name": "_helper",
          "type": "address"
        },
        {
          "name": "_workId",
          "type": "string"
        },
        {
          "name": "_address_house",
          "type": "string"
        },
        {
          "name": "_type_work",
          "type": "string"
        },
        {
          "name": "_salary",
          "type": "uint256"
        },
        {
          "name": "_time",
          "type": "uint256"
        }
      ],
      "name": "setData",
      "outputs": [],
      "payable": false,
      "stateMutability": "nonpayable",
      "type": "function",
      "signature": "0x763390f4"
    },
    {
      "constant": true,
      "inputs": [],
      "name": "getData",
      "outputs": [
        {
          "name": "",
          "type": "address"
        },
        {
          "name": "",
          "type": "address"
        },
        {
          "name": "",
          "type": "string"
        },
        {
          "name": "",
          "type": "string"
        },
        {
          "name": "",
          "type": "string"
        },
        {
          "name": "",
          "type": "uint256"
        },
        {
          "name": "",
          "type": "uint256"
        }
      ],
      "payable": false,
      "stateMutability": "view",
      "type": "function",
      "signature": "0x3bc5de30"
    }
  ],
  "bytecode": "0x608060405234801561001057600080fd5b50336000800160006101000a81548173ffffffffffffffffffffffffffffffffffffffff021916908373ffffffffffffffffffffffffffffffffffffffff160217905550610795806100636000396000f30060806040526004361061004c576000357c0100000000000000000000000000000000000000000000000000000000900463ffffffff1680633bc5de3014610051578063763390f41461022d575b600080fd5b34801561005d57600080fd5b50610066610376565b604051808873ffffffffffffffffffffffffffffffffffffffff1673ffffffffffffffffffffffffffffffffffffffff1681526020018773ffffffffffffffffffffffffffffffffffffffff1673ffffffffffffffffffffffffffffffffffffffff168152602001806020018060200180602001868152602001858152602001848103845289818151815260200191508051906020019080838360005b8381101561011e578082015181840152602081019050610103565b50505050905090810190601f16801561014b5780820380516001836020036101000a031916815260200191505b50848103835288818151815260200191508051906020019080838360005b83811015610184578082015181840152602081019050610169565b50505050905090810190601f1680156101b15780820380516001836020036101000a031916815260200191505b50848103825287818151815260200191508051906020019080838360005b838110156101ea5780820151818401526020810190506101cf565b50505050905090810190601f1680156102175780820380516001836020036101000a031916815260200191505b509a505050505050505050505060405180910390f35b34801561023957600080fd5b50610374600480360381019080803573ffffffffffffffffffffffffffffffffffffffff169060200190929190803573ffffffffffffffffffffffffffffffffffffffff169060200190929190803590602001908201803590602001908080601f0160208091040260200160405190810160405280939291908181526020018383808284378201915050505050509192919290803590602001908201803590602001908080601f0160208091040260200160405190810160405280939291908181526020018383808284378201915050505050509192919290803590602001908201803590602001908080601f016020809104026020016040519081016040528093929190818152602001838380828437820191505050505050919291929080359060200190929190803590602001909291905050506105d2565b005b60008060608060606000806000800160009054906101000a900473ffffffffffffffffffffffffffffffffffffffff16600060010160009054906101000a900473ffffffffffffffffffffffffffffffffffffffff16600060020160006003016000600401600060050154600060060154848054600181600116156101000203166002900480601f01602080910402602001604051908101604052809291908181526020018280546001816001161561010002031660029004801561047c5780601f106104515761010080835404028352916020019161047c565b820191906000526020600020905b81548152906001019060200180831161045f57829003601f168201915b50505050509450838054600181600116156101000203166002900480601f0160208091040260200160405190810160405280929190818152602001828054600181600116156101000203166002900480156105185780601f106104ed57610100808354040283529160200191610518565b820191906000526020600020905b8154815290600101906020018083116104fb57829003601f168201915b50505050509350828054600181600116156101000203166002900480601f0160208091040260200160405190810160405280929190818152602001828054600181600116156101000203166002900480156105b45780601f10610589576101008083540402835291602001916105b4565b820191906000526020600020905b81548152906001019060200180831161059757829003601f168201915b50505050509250965096509650965096509650965090919293949596565b866000800160006101000a81548173ffffffffffffffffffffffffffffffffffffffff021916908373ffffffffffffffffffffffffffffffffffffffff16021790555085600060010160006101000a81548173ffffffffffffffffffffffffffffffffffffffff021916908373ffffffffffffffffffffffffffffffffffffffff16021790555084600060020190805190602001906106729291906106c4565b50836000600301908051906020019061068c9291906106c4565b5082600060040190805190602001906106a69291906106c4565b50816000600501819055508060006006018190555050505050505050565b828054600181600116156101000203166002900490600052602060002090601f016020900481019282601f1061070557805160ff1916838001178555610733565b82800160010185558215610733579182015b82811115610732578251825591602001919060010190610717565b5b5090506107409190610744565b5090565b61076691905b8082111561076257600081600090555060010161074a565b5090565b905600a165627a7a723058204583f36db316de17b54910925708ae3bfda180e5cfb44ba80346878f52ea67ae0029",
  "source": "pragma solidity >=0.4.21 <0.6.0;\n\n\ncontract Work {\n\n    struct _Work{\n        address owner;\n        address helper;\n        string workId;\n        string address_house;\n        string type_work;\n        uint salary;\n        uint time;\n    }\n\n    _Work work;\n\n    constructor() public {\n        work.owner = msg.sender;\n    }\n\n    modifier restricted() {\n        if (msg.sender == work.owner) _;\n    }\n\n    function setData(\n        address _owner,\n        address _helper,\n        string _workId,\n        string _address_house,\n        string _type_work,\n        uint _salary,\n        uint _time\n    ) public {\n        work.owner = _owner;\n        work.helper = _helper;\n        work.workId = _workId;\n        work.address_house = _address_house;\n        work.type_work = _type_work;\n        work.salary = _salary;\n        work.time = _time;\n    }\n\n    function getData() public view returns(address, address, string, string, string, uint, uint){\n        return (work.owner, work.helper, work.workId, work.address_house, work.type_work, work.salary, work.time);\n    }\n\n}\n",
  "sourcePath": "/home/thao/Desktop/HouseCareSystem/Contract/contracts/Work.sol",
  "compiler": {
    "name": "solc",
    "version": "0.4.23+commit.124ca40d.Emscripten.clang"
  },
  "schemaVersion": "3.0.1",
  "updatedAt": "2019-01-11T03:30:52.435Z",
  "devdoc": {
    "methods": {}
  },
  "userdoc": {
    "methods": {}
  }
}